:100000000C944A010C9467010C9467010C946701ED
:100010000C9467010C9467010C9467010C946701C0
:100020000C9467010C9467010C9467010C943908D7
:100030000C9467010C9467010C9467010C946701A0
:100040000C9467010C9467010C9467010C94970859
:100050000C94670131343A30373A3439004D6179C4
:100060002031382032303137000A0D50726F6772FC
:10007000616D6D203F3F2000B900B0019D008001FF
:100080008400C001414443004144432D57657274CC
:100090002041757367616265004144430074657374
:1000A0007400636F6D6D616E646F20666F72207493
:1000B000657374007465737400696E666F004170D7
:1000C000706C69636174696F6E20696E666F73002E
:1000D000696E666F004C696E652D4D6F64653A20E0
:1000E0004354524C2D582C204354524C2D592C2003
:1000F0004354524C2D432C2052657475726E20204F
:100100000A0D00290190050B01290473696E666FC1
:100110000053797374656D696E666F726D61746991
:100120006F6E0073696E666F0068656C70004C6975
:100130007374206F6620616C6C20636F6D6D616EEF
:1001400064730068656C7000202D3E2053796E74D6
:100150006178206572726F720A0D55736167653A36
:1001600020004572726F723A20556E6B6E6F776E1B
:1001700020636F6D6D616E640A0D004572726F725F
:1001800020000A0D3E006E616E00696E6600004040
:100190007A10F35A00A0724E18090010A5D4E80096
:1001A00000E87648170000E40B54020000CA9A3BAE
:1001B000000000E1F5050000809698000000404234
:1001C0000F000000A08601000000102700000000C2
:1001D000E803000000006400000000000A000000C6
:1001E00000000100000000002C76D888DC674F0872
:1001F00023DFC1DFAE59E1B1B796E5E3E453C63A78
:10020000E651997696E8E6C28426EB898C9B62EDEE
:10021000407C6FFCEFBC9C9F40F2BAA56FA5F490A8
:10022000055A2AF75C936B6CF9676DC11BFCE0E41F
:100230000D47FEF520E6B500D0ED902E0300943575
:1002400077050080841E080000204E0A000000C8C8
:100250000C333333330F986E12831141EF8D211419
:10026000893BE65516CFFEE6DB18D1844B381BF7E9
:100270007C1D901DA4BBE424203284725E22810088
:10028000C9F124ECA1E53D276364696E6F70737555
:1002900078585B0011241FBECFE5D4E0DEBFCDBF90
:1002A00011E0A0E6B0E0EAE7F8E202C005900D92A6
:1002B000AA34B107D9F711E0AAE4B1E001C01D9258
:1002C000AD39B107E1F70E9405090C943B140C9479
:1002D0000000109252011092510187B18E6387B9CC
:1002E00087EC86B90895089585B180935201369AB6
:1002F0000895089508950895089508950895089516
:10030000DF92EF92FF920F931F93CF93DF93D82E3C
:100310008823E9F08B01C0E0D0E08CE7E82E80E094
:10032000F82EF801908121810E5F1F4F2F939F932C
:10033000DF93CF93FF92EF920E94861021960F9049
:100340000F900F900F900F900F90CD1550F380E00D
:10035000DF91CF911F910F91FF90EF90DF90089563
:1003600085E890E09F938F930E94861080917F0193
:100370000E940E040E945F030F900F9080E008958A
:100380008F929F92AF92BF92CF92DF92EF92FF92A5
:100390000F931F93CF93DF93CDB7DEB728970FB698
:1003A000F894DEBF0FBECDBFCE0105969F938F930D
:1003B00006E910E01F930F93FB0183818F938281E5
:1003C0008F930E94A110BC01882777FD8095982FFC
:1003D0000E94450D6D837E838F83988760915201C3
:1003E00070E080E090E00E94450D6B017C019B0174
:1003F000AC016AE077ED83E294E40E94DB0CB62E58
:10040000A72E982E892EB501C401272F362F492FEC
:10041000582FC701B6010E94DB0C69837A838B8356
:100420009C838F929F92AF92BF921F930F930E94D3
:100430008610CE0101969F938F931F930F931F9267
:100440001F920E94A1100FB6F894DEBF0FBECDBF61
:10045000E199FECF1FBA1EBA1DBAE29AE19A80E076
:1004600028960FB6F894DEBF0FBECDBFDF91CF91B7
:100470001F910F91FF90EF90DF90CF90BF90AF90C2
:100480009F908F900895109253010895089583E0EE
:100490000895E199FECF1FBA1EBA6DBBE29AE19AA8
:1004A00008958823C1F0813061F0823011F58FEC1E
:1004B00090E09F938F930E9486100F900F908FE093
:1004C00008958BEA90E09F938F930E9486100F907F
:1004D0000F9088E2089585ED90E00E94680389E915
:1004E00090E09F938F930E9486100F900F9084E16D
:1004F00008958FEF0895CF938130E9F160F1823054
:1005000019F08FEFCF910895C09152016C2F70E0D8
:1005100080E090E00E94450D9B01AC016AE077ED20
:1005200083E294E40E94DB0C9F938F937F936F93FD
:100530001F92CF9383EF90E09F938F930E9486103A
:100540008DB79EB708960FB6F8949EBF0FBE8DBFAD
:100550008FEFCF9108958DED90E09F938F930E9440
:1005600086108091510160E00E94CE030F900F90A1
:1005700082E0CF9108956336D1F080914A01909145
:100580004B019C012F5F3F4F30934B0120934A0159
:100590009F938F9383EE90E09F938F930E9486109A
:1005A0000F900F900F900F9082E0CF91089521E06F
:1005B00030E080E090E0E8CF209195013091960105
:1005C00028173907C1F4909183018091820198170F
:1005D00091F0E091820181E08E0F80938201F0E042
:1005E000E158FE4F868190918201903110F0109277
:1005F000820190E008958EEF9FEF0895209197017A
:10060000309198012617370739F45D9BFECF8CB9DE
:10061000992787FD909508958EEF9FEF089586E1C5
:10062000EFE7F1E0DF011D928A95E9F7BFE32EE7DE
:1006300085E0B15020408040E1F700C0000085E92E
:100640008CBF8AE083BF82E089BF88BF8CE089B914
:1006500010BC1BB886E880BD88E98AB98FE08BBBE7
:100660008ABB84B38F7384BB8EE690E0909398012D
:100670008093970180E690E0909396018093950196
:1006800008958F3F11F08F5F08958FEF08958F3F8A
:100690002FEF920711F0019608958FEF9FEF0895C5
:1006A00080917F0187FF089578940895EFE7F1E046
:1006B00090818FB78078892B8083F894089587E4A0
:1006C00091E09F938F930E9486100F900F90089552
:1006D0000F931F93CF93DF931F92CDB7DEB7BC016B
:1006E0000AC06091970170919801992787FD9095B4
:1006F0000E945410B8018B010F5F1F4F41E050E082
:10070000CE0101960E94E50F89818111EACF0F90F9
:10071000DF91CF911F910F9108950E94680387E4A4
:1007200091E09F938F930E9486100F900F900895F1
:10073000CF93DF931F92CDB7DEB719828636F1F0E3
:10074000833789F0853631F08FEF9FEF0F90DF917F
:10075000CF91089561157240B8F780E090E00F9056
:10076000DF91CF9108956036E4E07E0768F7FB01E2
:10077000808190E00F90DF91CF910895611580E422
:10078000780710F741E050E0CE0101960E94E50F96
:10079000898190E00F90DF91CF910895CF92DF9201
:1007A000EF92FF921F93CF93DF93F82EE62E11E086
:1007B000C1E3D0E0C62EDD24C7FCD0946091970140
:1007C000709198012F2D332727FD30952095309576
:1007D0002227330F221F3327CE01821B930B0E9447
:1007E0005410143069F0FF0C183011F01F5FE6CF81
:1007F000DF91CF911F91FF90EF90DF90CF90089500
:10080000E11003C0FF0C1F5FD9CF60919701709179
:100810009801C6010E945410FF0CF5CFCF93C82F4A
:100820001F928F9326E031E03F932F930E94861012
:1008300060E28C2F0E94CE030F900F900F900F90CC
:10084000609197017091980189E290E0CF910C94AA
:100850005410CF93DF938FE091E09F938F930E948A
:10086000861080917F010E940E04C7E4D1E0DF93DF
:10087000CF930E94861080E291E09F938F930E9415
:100880008610809180010E940E04DF93CF930E9416
:1008900086108DB79EB708960FB6F8949EBF0FBE10
:1008A0008DBF80E0DF91CF9108951F93CF93DF93A9
:1008B000182FC92F9F938F9321E331E03F932F93FC
:1008C0000E94861060E28C2F0E94CE03C7E9D1E01F
:1008D0006881798180E290E00E94541060E2812F6B
:1008E0000E94CE030F900F900F900F906881798136
:1008F00089E290E0DF91CF911F910C945410CF9337
:10090000DF93EB01FC012081203369F04AE050E0E5
:1009100060E070E00E94D10DC617D70774F0CB01DC
:10092000DF91CF9108952181283781F740E150E090
:1009300060E070E00E94D10DEFCF8FEF9FEFF0CF1E
:100940009091830180918201981738F480918301FE
:1009500090918201805F891B08958091830190911D
:100960008201891B0895CF93C82F80917F019FB783
:100970009078982B90937F01F8940E94A004C81758
:1009800098F4E0918201EC0FE03160F4F0E0E1587E
:10099000FE4F868190E020917F0127FF01C078946F
:1009A000CF910895E051F2CF8FEF9FEFF4CF909168
:1009B0007F018FB78078892B80937F01F8945F9BAC
:1009C00005C08CB1809385015F99FBCF10928201A5
:1009D000109283011092840180917F0187FF089516
:1009E0007894089520917F019FB79078922B9093EF
:1009F0007F01F89490918101982321E009F420E08F
:100A000090918101982B9093810180917F0187FFC4
:100A100001C07894822F089520917F019FB790782C
:100A2000922B90937F01F89420918101282331E04B
:100A300009F430E020918101982F909592239093B2
:100A4000810180917F0187FF01C07894832F0895F1
:100A500090918101982381E009F480E0089581114B
:100A600004C08FE08BBB18BA089580EF8BBB8FEF6B
:100A700088BB0895843060F49BB321E030E0082EF9
:100A800001C0220F0A94EAF7611103C0922B9BBBAD
:100A90000895209529232BBB0895843050F49BB3EF
:100AA00021E030E0082E01C0220F0A94EAF79227D5
:100AB0009BBB08951F93CF93DF9300D000D0CDB799
:100AC000DEB71A8219821C821B82823000F11EEF6F
:100AD000180F0E944702181770F4612F70E0660F1C
:100AE000771F660F771F68587F4F44E050E0CE01B4
:100AF00001960E94E50F69817A818B819C810F901C
:100B00000F900F900F90DF91CF911F910895682F54
:100B100070E0660F771F660F771F6D5F7E4FE5CF22
:100B20008F929F92AF92BF92CF92DF92EF92FF92FD
:100B30000F931F93CF93DF93C0E080E0D1E0D80FF5
:100B40000E945A05892B69F0CB010E94F70FC81744
:100B500008F4C82F8D2FD1E0D80F0E945A05892B99
:100B600099F7912CD0E0219637E4A32E31E0B32EF3
:100B7000892D0E945A056B017C01EF2871F1CB0190
:100B80000E946803C6010E94F70F8C01882E9927E6
:100B9000C817D90774F0609197017091980180E2AD
:100BA00090E00E9454108394282D30E0C217D307A0
:100BB00094F79394C80101968C0D9D1D0E946803C3
:100BC000BF92AF920E9486100F900F90892D0E94C5
:100BD0005A056B017C01EF2891F680E0DF91CF91FF
:100BE0001F910F91FF90EF90DF90CF90BF90AF904B
:100BF0009F908F900895EF92FF920F931F93CF9342
:100C0000DF931F92CDB7DEB7FC016081718101C017
:100C1000B8018B010F5F1F4F41E050E0CE010196FC
:100C20000E94E50F89818111F3CF01C0870178010E
:100C3000FFEFEF1AFF0A41E050E0B801CE01019644
:100C40000E94E50F89818111F1CFC7010E946803DD
:100C50000F90DF91CF911F910F91FF90EF9008952A
:100C6000EF92FF920F931F93CF93DF93CDB7DEB731
:100C70002C970FB6F894DEBF0FBECDBF87E491E08E
:100C80009F938F930E948610AE014F5F5F4F0F902E
:100C90000F90E7E5F1E0F12C8081882309F45DC035
:100CA000803261F49F012F5F3F4FF90180812F5FF8
:100CB0003F4F8032D1F3882309F44FC0DA01ED931E
:100CC000FD93AD01F3949F012F5F3F4F02C0882336
:100CD00051F0F90180812F5F3F4F8032C1F7CF0182
:100CE000F901DC011C92B4E0FB12D6CFE981FA8154
:100CF00080818823E9F080E009C069857A8587E5ED
:100D000091E00E94EE0F892BD9F18E2DEE24E39411
:100D1000E80E0E945A0569877A878B879C870B8526
:100D20001C850115110549F782E691E00E946803D0
:100D300082E891E00E9468031092560110925701D8
:100D40002C960FB6F894DEBF0FBECDBFDF91CF91CA
:100D50001F910F91FF90EF9008958F2DE82FF0E0F5
:100D6000EE0FFF1F21E030E02C0F3D1FE20FF31FBD
:100D7000118210828F5F843089F7FF20C9F2B6CFCD
:100D800032E0F31208C069E271E08B819C810E941D
:100D9000EE0F892B61F1BE016F5F7F4F8F2DF80140
:100DA0000995182F811109C087E491E09F938F93D3
:100DB0000E9486100F900F90BBCF8BE791E00E94AE
:100DC0006803212F332727FD30953F931F932AE394
:100DD00031E03F932F930E9486100F900F900F9059
:100DE0000F9017FFE1CF88E491E00E946803CE01E5
:100DF00009960E94FB05D8CF80915601811101C050
:100E000008958DE391E09F938F930E948610E09167
:100E10005601E150E0935601F0E0EC5AFE4F138288
:100E20000F900F9008951F93CF93DF93162F662393
:100E300069F0C82FDD27C7FDD095609197017091AB
:100E40009801CE010E9454101150B9F7DF91CF9153
:100E50001F910895CF93DF938091540180FF3DC08F
:100E6000C0E00E94A004882309F468C08091950125
:100E7000909196010E941610C82F809150018A30DF
:100E800011F0CD3021F0C0935001CA3051F780915C
:100E900054018C7F8093540181E491E09F938F9360
:100EA0000E9486100F900F90DF91CF910895E1E09E
:100EB000EA0FE0935601B0E0AC5ABE4F13968C9304
:100EC000F0E0EC5AFE4F1382609197017091980107
:100ED000992787FD90950E9454100E94A0048823B2
:100EE00019F380919501909196010E9416109091AE
:100EF00050019A3011F08D30D9F08093500198EE66
:100F0000980F923078F08A3099F08F3731F388302B
:100F100091F090EE980F9F3500F7A0915601A732FF
:100F2000E0F6C5CF80915401816080935401D5CF04
:100F30000E943006D2CF0E94FC06CFCFC83159F1B3
:100F4000C93109F47BC0C33009F47FC0D0E080917F
:100F5000540181FF27C0809155016C2F0E947B02B4
:100F6000C82F882351F0609197017091980180E219
:100F700090E00E945410C150B1F78DE090E00E94C3
:100F80009A108091540182FF8FCF8AE090E0DF9128
:100F9000CF910C949A10809154018D7F80935401CD
:100FA000D1E0D5CF86E491E09F938F930E94861085
:100FB0000F900F900EC08F5F809355018091550167
:100FC0000E945102C82F87FF0CC0809155018823D1
:100FD00061F1DD2399F380915501D13061F38150A6
:100FE000EBCF27E431E03F932F930E9486100F90C0
:100FF0000F90CC2351F060919701709198018DE290
:1010000090E00E945410C150B1F787E491E09F93A3
:101010008F930E94861080915401826080935401C6
:101020000F900F90DF91CF91089587E491E09F9307
:101030008F930E9486100F900F90E7CF80915401FC
:101040008D7F80935401DFEF82CF8091540182FF26
:1010500007C080915401897F80935401D0E077CFFD
:1010600080915401846080935401D0E070CF0C943F
:101070002A071F920F920FB60F9211242F938F936E
:101080009F93EF93FF938CB1823541F180934F0191
:10109000E091830191E09E0F90938301F0E0E1588D
:1010A000FE4F868380918301803110F0109283017E
:1010B00090918301809182019817F9F0E09183016A
:1010C000F0E0E158FE4F1682FF91EF919F918F91D2
:1010D0002F910F900FBE0F901F90189590914F0178
:1010E0009034A1F628E088E190E00FB6F894A89536
:1010F00081BD0FBE21BDA895FFCF809183018111D5
:101100000BC08FE080938301809184018F3F69F051
:101110008F5F80938401D2CF80918301815080932F
:101120008301809184018F3F99F78FEFF2CF1F9257
:101130000F920FB60F9211242F933F934F935F930B
:101140006F937F938F939F93AF93BF93EF93FF938F
:1011500080914E018F5F8530E0F110924E018091B9
:101160004D018F5F80934D0180914C018823C1F028
:10117000809180018F3FC1F18F5F80938001FF914B
:10118000EF91BF91AF919F918F917F916F915F91FF
:101190004F913F912F910F900FBE0F901F90189578
:1011A00081E080934C01789480914D0180FD19C0BD
:1011B00081FD12C082FD1DC083FD1EC084FD1FC0C5
:1011C00085FD14C086FD1EC087FF08C00E947F01F8
:1011D00005C080934E01D3CF0E94790110924C013B
:1011E000CECF0E947401FACF8FEFC7CF0E947D014E
:1011F000F5CF0E947A01F2CF0E947B01EFCF0E94CF
:101200007C01ECCF0E947E01E9CF0E940F030E9477
:1012100069010E94430289E690E00E9468038DE51F
:1012200090E00E94680380E290E00E949A1084E5BA
:1012300090E00E948D030E945F038EE390E00E9485
:101240009A1078940E9437080E9473010E94460207
:10125000F9CFA3E1B0E0EFE2F9E00C94A40C7C013B
:101260001B016A01FC0117821682838181FF66C31C
:10127000BE016F5F7F4F4B01F7019381F10193FD39
:10128000859193FF81911F01882309F453C385320F
:1012900039F493FD859193FF81911F01853239F4D3
:1012A000B70190E00E94541056016501E5CF10E0AF
:1012B000512C20E02032A0F48B3269F030F48032DF
:1012C00059F0833269F420612CC08D3239F08033BB
:1012D00039F4216026C02260246023C0286021C028
:1012E00027FD27C030ED380F3A3078F426FF06C0CE
:1012F000FAE01F9F300D1124132F13C06AE0569E91
:10130000300D1124532E20620CC08E3221F426FDA4
:1013100011C3206406C08C3611F4206802C08836E0
:1013200041F4F10193FD859193FF81911F0181119A
:10133000C1CF9BEB980F933018F42061805E06C0FC
:101340009BE9980F933008F0AAC12F7E26FF16E084
:101350002F73722E853621F4F22FF0647F2E08C091
:10136000863621F4622F6068762E02C0111111506A
:1013700077FE07C01C3348F444244394410E27E011
:101380000BC0183030F4212F06C027E04CE3442E68
:1013900003C027E017E0412C560174E0A70EB11CF2
:1013A000F6016081718182819381042DA4010E94E4
:1013B000050F6C01098100FF02C003FF06C071FC2C
:1013C00007C072FC08C0612C08C03DE2632E05C056
:1013D0002BE2622E02C090E2692E802F8C7099F170
:1013E000662011F084E001C083E0851510F0512CD7
:1013F0000BC0581A73FC08C0B70180E290E00E944D
:1014000054105A94C9F7F3CF662029F0B701862DFE
:1014100090E00E94541003FD03C00AE811E002C0EE
:1014200006E811E0F72DF0717F2EF80184918823F2
:1014300009F476C271108052B70190E00E945410F6
:101440000F5F1F4FF2CF77FE0FC04C0C04FF04C09C
:101450008A81813309F44A94141474F5F8E0F41580
:1014600078F588E0482E2CC076FC2AC0812F90E0C9
:101470008C159D059CF06CEFC6166FEFD60674F0C8
:10148000772D7068772E0AC0E2E0F0E0EC0FFD1FC8
:10149000E10FF11D8081803319F411501111F4CF47
:1014A00077FE0EC044244394410E812F90E0C8166D
:1014B000D9062CF41C1904C04424439401C010E044
:1014C00077FE07C01C141D043CF496012F5F3F4FAC
:1014D00005C025E030E002C021E030E0662011F0D8
:1014E0002F5F3F4F112331F0412F50E04F5F5F4F8F
:1014F000240F351F452D50E02417350714F4521AD8
:1015000001C0512C872D897049F4552039F0B7015D
:1015100080E290E00E9454105A94F7CF662029F0A0
:10152000B701862D90E00E94541073FC09C055202D
:1015300039F0B70180E390E00E9454105A94F7CF3D
:1015400077FE5FC09C2D8D2DD7FE02C090E080E01D
:10155000692E782E40E050E0C601841991099D87DC
:101560008C87960126193709280D391D812F90E0A7
:10157000EE27FF27E81BF90BFF87EE87FFEF6F16BB
:101580007F0669F4B7018EE290E02B8B3A8B488B93
:10159000598B0E945410598948893A892B89C6145D
:1015A000D70454F06C857D85661577052CF4F90118
:1015B000E40FF51F818101C080E371E0671A7108B3
:1015C0004F5F5F4FEE85FF856E167F066CF0B701AB
:1015D00090E02B8B3A8B488B598B0E9454102B89AF
:1015E0003A8948895989CACF6C147D0439F49A81A3
:1015F000963318F4953311F404FF81E3B70190E0BA
:101600004BC08A81813309F00F7EB70190E00E94C0
:101610005410111105C074FE18C085E490E017C085
:10162000B7018EE290E00E94541082E06624639439
:10163000680EF401E80FF11D8081B70190E00E946F
:101640005410115041F3862DF1CF85E690E0B7019B
:101650000E945410D7FC05C0C114D10439F404FF12
:1016600005C0D194C194D1088DE201C08BE2B701CD
:1016700090E00E94541080E36AE0C616D1042CF07A
:101680008F5FFAE0CF1AD108F7CFB70190E00E9440
:101690005410B701C601C0960E94541041C1833650
:1016A00031F0833779F0833509F058C021C05601F5
:1016B00072E0A70EB11CF6018081898301E010E081
:1016C000640114C05601F2E0AF0EB11CF601C080F7
:1016D000D18026FF03C0612F70E002C06FEF7FEF63
:1016E000C6012B8B0E940B108C012B892F7715C004
:1016F0005601F2E0AF0EB11CF601C080D18026FF8A
:1017000003C0612F70E002C06FEF7FEFC6012B8B2B
:101710000E9400108C012B892068722E23FD1AC0B4
:10172000852D90E008171907A8F4B70180E290E032
:101730000E9454105A94F4CFF60177FC859177FEFD
:1017400081916F01B70190E00E94541051105A949A
:10175000015011090115110579F7E2C0843611F025
:10176000893651F5560127FF09C0F4E0AF0EB11CD0
:10177000F60160817181828193810AC0F2E0AF0E2F
:10178000B11CF60160817181882777FD8095982FC3
:10179000022F0F7697FF08C0909580957095619500
:1017A0007F4F8F4F9F4F00682AE030E0A4010E94D6
:1017B000B510C82EC8183EC0022F853721F40F7E01
:1017C0002AE030E01DC0097F8F3691F018F488358B
:1017D00059F0B0C0803719F0883711F0ABC0006104
:1017E00004FF09C0046007C024FF08C0066006C0EB
:1017F00028E030E005C020E130E002C020E132E026
:10180000560107FF09C0F4E0AF0EB11CF60160817C
:1018100071818281938108C0F2E0AF0EB11CF601A4
:101820006081718180E090E0A4010E94B510C82E13
:10183000C8180F7706FF0BC0202F2E7FC11650F45B
:1018400004FF0AC002FD08C0202F2E7E05C0DC2C3C
:10185000202F03C0DC2C01C0D12E24FF0DC0FE01BF
:10186000EC0DF11D8081803311F4297E09C022FF27
:1018700006C0D394D39404C0822F867809F0D39401
:1018800023FD13C020FF06C01C2DD51418F4150D20
:101890001D19D52CD51468F4B70180E290E02B8B8C
:1018A0000E945410D3942B89F5CFD51410F45D18F1
:1018B00001C0512C24FF12C0B70180E390E02B8BB4
:1018C0000E9454102B8922FF17C021FF03C088E516
:1018D00090E002C088E790E0B7010CC0822F8678C4
:1018E00059F021FD02C080E201C08BE227FD8DE2AC
:1018F000B70190E00E945410C11638F4B70180E39C
:1019000090E00E9454101150F7CFCA94F401EC0DEE
:10191000F11D8081B70190E00E945410C110F5CFF5
:10192000552009F4C2CCB70180E290E00E94541027
:101930005A94F6CFF7018681978102C08FEF9FEF0F
:101940006396E2E10C94C00C2F923F924F925F920B
:101950006F927F928F929F92AF92BF92CF92DF92BF
:10196000EF92FF920F931F93CF93DF93CDB7DEB724
:10197000CA1BDB0B0FB6F894DEBF0FBECDBF0994B8
:101980002A88398848885F846E847D848C849B840F
:10199000AA84B984C884DF80EE80FD800C811B811D
:1019A000AA81B981CE0FD11D0FB6F894DEBF0FBE4C
:1019B000CDBFED0108950CD0BAC0B2D040F0A9D08F
:1019C00030F021F45F3F19F09BC05111E4C09EC07C
:1019D000BFD098F39923C9F35523B1F3951B550B49
:1019E000BB27AA2762177307840738F09F5F5F4FF2
:1019F000220F331F441FAA1FA9F333D00E2E3AF033
:101A0000E0E830D091505040E695001CCAF729D04C
:101A1000FE2F27D0660F771F881FBB1F261737079B
:101A20004807AB07B0E809F0BB0B802DBF01FF27CB
:101A300093585F4F2AF09E3F510568F061C0ABC0DC
:101A40005F3FECF3983EDCF3869577956795B79505
:101A5000F7959F5FC9F7880F911D9695879597F920
:101A60000895E1E0660F771F881FBB1F6217730799
:101A70008407BA0720F0621B730B840BBA0BEE1FAE
:101A800088F7E0950895E89409C097FB3EF4909597
:101A90008095709561957F4F8F4F9F4F9923A9F047
:101AA000F92F96E9BB279395F695879577956795D6
:101AB000B795F111F8CFFAF4BB0F11F460FF1BC01A
:101AC0006F5F7F4F8F4F9F4F16C0882311F096E9AD
:101AD00011C0772321F09EE8872F762F05C066235B
:101AE00071F096E8862F70E060E02AF09A95660F14
:101AF000771F881FDAF7880F9695879597F90895CD
:101B000097F99F6780E870E060E008959FEF80ECB0
:101B1000089500240A941616170618060906089553
:101B200000240A9412161306140605060895092EB9
:101B30000394000C11F4882352F0BB0F40F4BF2B28
:101B400011F460FF04C06F5F7F4F8F4F9F4F089568
:101B500057FD9058440F551F59F05F3F71F047955E
:101B6000880F97FB991F61F09F3F79F08795089543
:101B7000121613061406551FF2CF4695F1DF08C062
:101B8000161617061806991FF1CF8695710561057F
:101B900008940895E894BB2766277727CB0197F927
:101BA00008952F923F925F926F927F928F929F92B1
:101BB000AF92BF92CF92DF92EF92FF920F931F935B
:101BC000CF93DF938B01EA016115710521F0DB01F1
:101BD0008C9311969C93209739F09E0122503109E5
:101BE0002332310508F0FBC07C016701BFEFCB1A3F
:101BF000DB0A5601F7016080862D90E00E94DD0F20
:101C0000892B11F07601F1CFFDE26F120AC0570166
:101C100082E0A80EB11CD70111966C9077247394C2
:101C20000BC0BBE26B1207C05701E2E0AE0EB11C65
:101C3000D70111966C90712CCE018F7E892B89F47F
:101C4000B0E36B1222C0F50180818F7D883541F5AC
:101C50006180F2E0AF0EB11C872D8260782EC0E16A
:101C6000D0E0C830D105F1F04CF4C230D10511F507
:101C7000C12CD12CE12CB0E4FB2E2FC0CA30D105F1
:101C800031F0C031D10521F115C0209751F7CAE0DC
:101C9000D0E0ACECCA2EDC2CEC2CACE0FA2E1DC053
:101CA0002097F9F6C8E0D0E0C12CD12CE12CF0E16E
:101CB000FF2E13C060E070E080E090E89E014427B2
:101CC00037FD4095542F0E94FF1369017A0105C02A
:101CD000C12CD12CE12CE8E0FE2EF50160E020E0E3
:101CE00030E0A9014E01AA2497FCA094BA2C1F0150
:101CF00070ED572E560CA9E0A51570F48FEB860DEC
:101D00008A3118F499EC592E06C08FE9860D8A3174
:101D100030F589EA582E560C852D90E08C179D07DA
:101D2000F4F467FD18C0C216D306E406F50680F089
:101D3000C501B4010E94EF139B01AC01250D311DBB
:101D4000411D511D213031054105B0E85B0710F000
:101D50006FEF01C061E03196D1016C90C8CF872D43
:101D600081700115110571F0662329F03197D801B2
:101D7000ED93FC9307C071FE19C03297D801ED9323
:101D8000FC9314C067FF12C0882329F020E030E0E4
:101D900040E050E804C02FEF3FEF4FEF5FE782E2F3
:101DA00090E090939C0180939B0116C0882341F0A2
:101DB00050954095309521953F4F4F4F5F4F0CC048
:101DC00057FF0AC082E290E090939C0180939B01B0
:101DD0002FEF3FEF4FEF5FE7B901CA0104C060E0AA
:101DE00070E080E090E0DF91CF911F910F91FF9024
:101DF000EF90DF90CF90BF90AF909F908F907F90AB
:101E00006F905F903F902F900895283008F027E062
:101E10003327DA01990F311D87FD91600096610526
:101E2000710539F432602E5F3D9330E32A95E1F776
:101E300008959F3F30F080387105610509F03C5FDF
:101E40003C5F3D93913008F08068911DDF93CF9304
:101E50001F930F93FF92EF92192F987F9695E92F7A
:101E600096959695E90FFF27E851FE4F992733275E
:101E7000EE24FF24A701E70105900894079428F4B5
:101E8000360FE71EF81E491F511D660F771F881F6A
:101E9000991F0694A1F70590079428F4E70EF81E01
:101EA000491F561FC11D770F881F991F661F069473
:101EB000A1F70590079428F4F80E491F561FC71F75
:101EC000D11D880F991F661F771F0694A1F70590F3
:101ED000079420F4490F561FC71FD81F990F661F7C
:101EE000771F881F0694A9F784911095177041F009
:101EF000D695C79557954795F794E7941A95C1F7E6
:101F0000EEE8F1E068941590159135916591959101
:101F100005907FE27395E118F10A430B560BC90B4C
:101F2000D009C0F7E10CF11E431F561FC91FD01D79
:101F30007EF4703311F48A95E6CFE894015030F0C6
:101F4000080F0AF40027021708F4202F2395022F08
:101F50007A3328F079E37D932A95E9F710C07D93D1
:101F60002A9589F60694979567953795179517944E
:101F7000E118F10A430B560BC90BD00998F02395D1
:101F80007E9173957A3308F070E37C932013B8F751
:101F90007E9170617D9330F0839571E37D9370E362
:101FA0002A95E1F71124EF90FF900F911F91CF91A7
:101FB000DF91992787FD909508959111E9C38032AB
:101FC00019F089508550D0F70895FB01DC0102C05B
:101FD00005900D9241505040D8F70895FB01DC0167
:101FE0008D91059080190110D9F3990B0895FC018A
:101FF00005900020E9F7809590958E0F9F1F08951A
:10200000FC010590615070400110D8F780959095C3
:102010008E0F9F1F0895FC016150704001900110C8
:10202000D8F7809590958E0F9F1F0895CF93DF93DB
:10203000EC012B8120FF33C026FF0AC02F7B2B83AE
:102040008E819F8101969F838E838A8190E029C033
:1020500022FF0FC0E881F9818081992787FD909543
:10206000009719F420622B831AC03196F983E88314
:102070000EC0EA85FB85099597FF09C02B81019663
:1020800011F480E101C080E2822B8B8308C02E8195
:102090003F812F5F3F4F3F832E83992702C08FEFF1
:1020A0009FEFDF91CF9108950F931F93CF93DF930D
:1020B000182F092FEB018B8181FD03C08FEF9FEF5C
:1020C00020C082FF10C04E815F812C813D8142176C
:1020D00053077CF4E881F9819F012F5F3F4F3983DB
:1020E0002883108306C0E885F985812F0995892BFF
:1020F00029F72E813F812F5F3F4F3F832E83812F12
:10210000902FDF91CF911F910F910895A0E0B0E043
:10211000ECE8F0E10C94B40CFE01359661917191FC
:10212000AF0180919701909198010E942909E2E006
:102130000C94D00C60919701709198010E945410FA
:102140000895A0E0B0E0E7EAF0E10C94B40CFE01E1
:10215000359661917191AF018091950190919601B1
:102160000E949112E2E00C94D00CFA01AA272830C8
:1021700051F1203181F1E8946F936E7F6E5F7F4F54
:102180008F4F9F4FAF4FB1E03ED0B4E03CD0670FD0
:10219000781F891F9A1FA11D680F791F8A1F911D23
:1021A000A11D6A0F711D811D911DA11D20D009F473
:1021B00068943F912AE0269F11243019305D3193B5
:1021C000DEF6CF010895462F4770405D4193B3E09E
:1021D0000FD0C9F7F6CF462F4F70405D4A3318F045
:1021E000495D31FD4052419302D0A9F7EACFB4E0F6
:1021F000A6959795879577956795BA95C9F70097AE
:102200006105710508959B01AC010A2E069457954E
:10221000479537952795BA95C9F7620F731F841FA5
:10222000951FA01D089520FD09C0FC0123FD05C0D8
:1022300022FF02C07383628351834083089544FD6B
:1022400010C046FD10C0DB01FC01AA0FBB1FEE1F32
:10225000FF1F1094D1F76A0F7B1F8E1F9F1F31E065
:1022600003C033E001C034E0660F771F881F991F59
:102270003150D1F7620F711D811D911D08950F938B
:102280001F93CF93DF938C01C8010E941610EC01BD
:1022900097FD08C00E94DD0F892BB1F7B801CE0170
:1022A0000E94D613CE01DF91CF911F910F91089517
:1022B0008F929F92AF92CF92DF92EF92FF920F9305
:1022C0001F93CF93DF93EC01A62E4A01022F0E94A9
:1022D0001610AC0155274B32510521F04D325105F6
:1022E00051F40068AA9411F480E067C0CE010E9406
:1022F000161097FDF9CF102F1D7F302F307301F589
:102300008033F1F4FF24FA94FA0C09F442C0CE01B0
:102310000E94161097FD3DC0382F3F7D383551F48F
:102320001264AA94AA94A9F1CE010E94161097FFF4
:1023300007C02FC006FF02C0126001C01261AF2C9F
:10234000C12CD12C760120ED280F283080F014FF0D
:1023500004C0BE010E94D61319C02A3040F016FFF7
:10236000F8CF2F7D3FEE320F363098F72750412FB0
:10237000C701B6010E941F116B017C011260AA9473
:1023800059F0CE010E94161097FFDDCF11FD04C059
:10239000ABCFC12CD12C760117FF08C0F094E0948C
:1023A000D094C094C11CD11CE11CF11C212FB70199
:1023B000A601C4010E94131181E0DF91CF911F910A
:1023C0000F91FF90EF90DF90CF90AF909F908F9004
:1023D0000895A1E2B0E0EFEEF1E10C94A90C5C01EC
:1023E0007A018E010F5F1F4F680180E2D8011D92B4
:1023F0008A95E9F7F501738040E050E0812CB0E068
:10240000912C81E090E0F90173FCA59173FEA191FC
:102410008F017A2F9F01A11103C080E090E07DC061
:10242000AE3519F44115510559F1E92DF0E0E417E5
:10243000F5073CF4AD3569F1AD3219F4BB2319F160
:1024400003C0B11101C08A2EE72FE695E695E69507
:1024500086010E0F111DF801A72FA7708C0102C075
:10246000000F111FAA95E2F7D801B081BA2BB083F3
:10247000781559F0781510F47F5FE6CF7150E4CFEE
:102480009924939403C0B1E001C0B0E04F5F5F4F67
:10249000BACFBB2319F08E8180628E83911003C066
:1024A0009924939415C0F601CE0181962081209540
:1024B0002193E817F907D1F7F3CFE114F10429F0DC
:1024C000D7018C93F70131967F01615001F1912C76
:1024D000C50169A30E94161069A197FD16C0282F97
:1024E000269526952695F601E20FF11D208130E014
:1024F000AC014770552702C0359527954A95E2F7FC
:1025000020FDDBCFB5010E94D613911086CFE114D8
:10251000F10411F0D7011C92C801A196EDE00C94D2
:10252000C50C4F925F927F928F929F92AF92BF9213
:10253000CF92DF92EF92FF920F931F93CF93DF938F
:102540001F92CDB7DEB78C012B017A01FC011782F7
:102550001682A12CF801D380F201D3FC8591D3FE21
:102560008191382F2F01882309F4FCC090E0398332
:102570000E94DD0F3981892B21F0C8010E943F1193
:10258000E9CF353241F4F201D3FC3591D3FE3191DC
:102590002F01353269F4C80139830E941610398140
:1025A00097FDDEC03817B1F2B8010E94D613DAC029
:1025B0003A3241F4D3FC3591D3FE31912F01BB2443
:1025C000B39401C0B12C712C20ED230F2A3090F46C
:1025D000FB2DF260BF2E672D70E080E090E040E2BE
:1025E0000E941F11762EF201D3FC3591D3FE31915A
:1025F0002F01EACFB1FE03C0711003C0B3C077242E
:102600007A94383619F03C3661F014C0F201D3FCEC
:102610003591D3FE31912F01383661F4FB2DF860EE
:10262000BF2E8B2D8460B82EF201D3FC3591D3FEE2
:1026300031912F01332309F495C0632F70E088E8AE
:1026400092E039830E94CB133981892B09F48AC027
:10265000B0FC07C0F701C080D180C70102967C01A1
:1026600002C0C12CD12C3E3651F4F801468157816D
:1026700060E070E02B2DC6010E9413116BCF333642
:10268000A1F4B1FC02C077247394C8010E94161013
:1026900097FD66C0C114D10429F0F6018083C601FC
:1026A00001966C017A9489F757C03B3559F4920131
:1026B000A601672DC8010E94E9112C01009709F0BD
:1026C0004BC045C0C80139830E943F11398197FD35
:1026D00047C03F3669F128F4343631F1393679F1A3
:1026E0002BC0333769F03537F9F026C0C114D10457
:1026F00029F0F6018082C60101966C017A9471F08E
:10270000C8010E9416104C0197FD08C00E94DD0F01
:10271000892B61F3B801C4010E94D613C114D104FE
:10272000D9F0F601108218C0FB2DF062BF2E07C051
:102730008B2D8061B82E03C09B2D9064B92E2B2D5C
:10274000A601672DC8010E945811811105C0F8012A
:102750008381807329F406C0B0FCFCCEA394FACE2A
:10276000AA2019F08A2D90E002C08FEF9FEF0F9002
:10277000DF91CF911F910F91FF90EF90DF90CF905D
:10278000BF90AF909F908F907F905F904F900895F3
:10279000992788270895FC010590061621F000204E
:1027A000D9F7C00108953197CF010895FB01238126
:1027B00020FF12C026FD10C08F3F3FEF930761F04E
:1027C00082832F7D20642383268137812150310924
:1027D00037832683992708958FEF9FEF0895DB01B4
:1027E0008F939F930E942114BF91AF91A29F800D60
:1027F000911DA39F900DB29F900D11240895A1E209
:102800001A2EAA1BBB1BFD010DC0AA1FBB1FEE1F6A
:10281000FF1FA217B307E407F50720F0A21BB30BB5
:10282000E40BF50B661F771F881F991F1A9469F731
:1028300060957095809590959B01AC01BD01CF018D
:1028400008950E942C14A59F900DB49F900DA49FF5
:10285000800D911D11240895A29FB001B39FC00166
:10286000A39F700D811D1124911DB29F700D811DBC
:0A2870001124911D0895F894FFCF84
:10287A0000000001000000000000DC02000000006F
:10288A00000200000000FE020000000025753A2048
:10289A0025730A0D006170702E666C6167735F752F
:1028AA003820203A20002566004C30207C206170B8
:1028BA00702E666C6167735F7538004C31207C201E
:1028CA00636F756E74657220202870726573732049
:1028DA0027632720666F7220726573657429004C1E
:1028EA0032207C2041444320576572740020202006
:1028FA007C20002020207C2020307825303478204D
:10290A002020004144433D20253375202D3E2025BB
:10291A002E3266200D003078253032782028007358
:10292A0079732E666C6167735F753820203A2000D0
:10293A007379732E7461736B4572725F75383A20BE
:10294A0000307825303478202800256400082008D3
:0A295A00000A0A0D3E000A0A0D00F3
:00000001FF
